S00B00006D63322E7372656317
S11300000C942A000C9434000C9434000C943400A6
S11300100C9434000C9434000C9434000C9434008C
S11300200C9434000C9434000C9434000C9434007C
S11300300C9434000C9434000C9434000C9434006C
S11300400C9434000C9434000C9434000C9434005C
S11300500C94340011241FBECFE5D8E0DEBFCDBF21
S11300600E9436000C94AF000C94000080EF81BB1A
S11300708FEF84BB809B0EC015BA85B3826085BBAD
S11300802FE681E191E0215080409040E1F700C0EB
S11300900000F0CF819B0EC015BA85B3846085BB88
S11300A02FE681E191E0215080409040E1F700C0CB
S11300B00000E0CF80B3837071F015BA85B3886017
S11300C085BB2FE681E191E0215080409040E1F72B
S11300D000C00000CFCF829B0EC015BA85B38061EB
S11300E085BB2FE681E191E0215080409040E1F70B
S11300F000C00000BFCF80B3857071F015BA85B31E
S1130100806285BB2FE681E191E0215080409040E0
S1130110E1F700C00000AECF80B3867071F015BA6D
S113012085B3806485BB2FE681E191E02150804056
S11301309040E1F700C000009DCF80B3897409F4BA
S113014099CF15BA85B3806885BB2FE681E191E02C
S1130150215080409040E1F700C000008BCFF8941C
S1050160FFCFCB
S9030000FC
