S0150000636865636B5F636F6C5F726F772E73726563BD
S11300000C942A000C9447000C9447000C9447006D
S11300100C9447000C9447000C9447000C94470040
S11300200C9447000C9447000C9447000C94470030
S11300300C9447000C9447000C9447000C94470020
S11300400C9447000C9447000C9447000C94470010
S11300500C94470011241FBECFE5D8E0DEBFCDBF0E
S113006011E0A0E6B0E0E2ECFFE002C005900D92E2
S1130070AA3AB107D9F722E0AAEAB1E001C01D9279
S1130080A235B207E1F70E94E0050C94DF070C9457
S11300900000FC010FB6F89460914E0270914F027B
S11300A080915002909151020FBE309721F06083ED
S11300B0718382839383089581E886B980E487B944
S11300C008958770806487B986B1806486B9349B4B
S11300D0FECF86B1806186B924B185B190E0982FB6
S11300E08827820F911D089510BC89E189B988E1A0
S11300F08AB98EE080BD08955D9BFECF8CB987EEF2
S113010093E00197F1F700C000000895CF92DF92C9
S1130110EF92FF920F931F93CF93DF93C12CD12CB7
S113012047C01416150624F48C010150110902C0AD
S113013000E010E0E12CF12C22C0D801AA0FBB1F73
S1130140AA0FBB1FA60FB71FF801E41BF50BEE0F98
S1130150FF1FEE0FFF1FE60FF71FEC0FFD1FE081DF
S1130160AC0FBD1FEC93219602C0C0E0D0E0C817CD
S1130170D9071CF3041B150BEFEFEE1AFE0AFC0162
S11301803197EE16FF068CF3A0E0B0E00BC0F80147
S1130190EE0FFF1FEE0FFF1FE60FF71FEA0FFB1F07
S11301A010821196A817B90794F3EFEFCE1ADE0A5E
S11301B0C216D3060CF4B5CFDF91CF911F910F91E6
S11301C0FF90EF90DF90CF900895AF92BF92CF92BF
S11301D0DF92EF92FF920F931F93CF93DF935C0113
S11301E0790100E010E040C0141615061CF4C501A6
S11301F0019702C080E090E020E030E01CC0FD01E7
S1130200EE0FFF1FEE0FFF1FE60FF71F6C01C41A5E
S1130210D50ACE0EDF1EE601D880E80FF91FD08282
S1130220119602C0A0E0B0E0AA15BB0544F3841BFC
S1130230950B2F5F3F4FF50131972E173F0794F32E
S113024020E030E00CC0F901EE0FFF1FEE0FFF1F9E
S1130250E60FF71FE80FF91F10822F5F3F4F2A1593
S11302603B058CF30F5F1F4F0E151F050CF4BCCF1D
S1130270DF91CF911F910F91FF90EF90DF90CF907E
S1130280BF90AF9008950F931F93CF93DF93EC012A
S113029020E030E00FEF1FEF1BC0F901EE0FFF1F4E
S11302A0EE0FFF1FEC0FFD1FE80FF91F40814F3FBA
S11302B041F0019602C080E090E0843091056CF337
S11302C001C089010F3F8FEF180729F42F5F3F4FBB
S11302D02430310584F398014FEF5FEFBE0184E0D1
S11302E090E00E94860020E030E06FEF7FEFAFEFF8
S11302F0BFEF25C0FC01EE0FFF1FEE0FFF1FEC0F39
S1130300FD1FE20FF31F40814F3F31F4AF3F8FEFEA
S1130310B80751F0B9010AC0019602C080E090E02C
S1130320843091053CF302C0B901D901AF3F8FEF8E
S1130330B80719F0621773072CF02F5F3F4F243072
S1130340310564F36A1B7B0BCB01019662307105A6
S113035020F48D010150110904C00397029708F499
S11303608D01112334F411950195110941E050E0F8
S113037002C04FEF5FEF9801BE0184E090E00E945D
S1130380E500DF91CF911F910F910895CF93DF93F3
S1130390CDB7DEB760970FB6F894DEBF0FBECDBF02
S11303A0DC0160E070E01FC09B01220F331F220FAD
S11303B0331FFD01E20FF31FE40FF51F9081E1E00D
S11303C0F0E0EC0FFD1F2E0F3F1FF901E40FF51FA6
S11303D090834F5F5F4F02C040E050E044305105CE
S11303E01CF36F5F7F4F64307105B4F320E030E09D
S11303F021C0FC01EE0FFF1FEE0FFF1F41E050E094
S11304004C0F5D1FE40FF51FE20FF31F4081F9014C
S1130410EE0FFF1FEE0FFF1FE25DFD4FE80FF91F08
S11304204083019602C080E090E0843091050CF393
S11304302F5F3F4F24303105B4F360E070E01FC0FC
S1130440CB01880F991F880F991FFC01E25DFD4FB6
S1130450E20FF31F4081E1E0F0E0EC0FFD1F8E0F8F
S11304609F1FFC01E20FF31F40832F5F3F4F02C029
S113047020E030E0243031051CF36F5F7F4F64309F
S11304807105B4F360E070E022C0E3E0F0E0E21B49
S1130490F30BCB01880F991F880F991F41E050E09F
S11304A04C0F5D1F480F591FE40FF51F4081825DFB
S11304B09D4FFC01E20FF31F40832F5F3F4F02C0AB
S11304C020E030E02430310504F36F5F7F4F643067
S11304D07105B4F38EE292E00E94430160960FB678
S11304E0F894DEBF0FBECDBFDF91CF910895CF93B7
S11304F0DF93EC01A0E0B0E02EC0FD01EE0FFF1F82
S1130500EE0FFF1FE40FF51FE20FF31F90819F3FD3
S1130510C9F4FD01EC0FFD1FE031F1050CF5C90133
S1130520860F971F88309105E8F4EE0FFF1FEE0F3A
S1130530FF1FEE0FFF1FE255FE4FE80FF91F8081EA
S11305408F3F91F02F5F3F4F02C020E030E0243016
S113055031059CF21196A430B105BCF38FEF05C0B0
S113056080E003C080E001C080E0DF91CF91089576
S1130570DC0160E070E02DC0FB01EE0FFF1FEE0F09
S1130580FF1FEA0FFB1FE20FF31F90819F3FB9F497
S11305904091AC015091AD01460F571FE0916800A6
S11305A0F0916900E20FF31F440F551F440F551FCC
S11305B0440F551F42555E4FE40FF51F90832F5F84
S11305C03F4F02C020E030E024303105ACF26F5FD1
S11305D07F4F64307105B4F3089560E070E02DC07E
S11305E0FB01EE0FFF1FEE0FFF1FE80FF91FE20FD5
S11305F0F31F40814F3FB9F44091AC015091AD01DC
S1130600460F571FE0916800F0916900E20FF31F55
S1130610440F551F440F551F440F551F42555E4F3D
S1130620E40FF51F10822F5F3F4F02C020E030E03F
S113063024303105ACF26F5F7F4F64307105B4F341
S11306400895AC0120E030E0A0E0B0E01AC0FA0167
S1130650EE0FFF1FEE0FFF1FEE0FFF1FE255FE4FC1
S1130660E20FF31F90819F3F51F461E070E0022E8E
S113067002C0660F771F0A94E2F7A62BB72B2F5FF1
S11306803F4F283031051CF3CD01089522C0FC01F1
S11306903197EE0FFF1FEE0FFF1FEE0FFF1FE25506
S11306A0FE4FE20FF31F4081FC01EE0FFF1FEE0F20
S11306B0FF1FEE0FFF1FE255FE4FE20FF31F4083B3
S11306C02F5F3F4F02C020E030E028303105FCF2BC
S11306D0019718161906BCF380E090E005C0FC01F0
S11306E0E255FE4F1082019688309105C4F30895B7
S11306F0CF93DF93C0E0D0E030C0FE01EE0FFF1FC8
S1130700EE0FFF1FEE0FFF1FE255FE4FE80FF91F1C
S113071030812323019603C080E090E02FEF8830DE
S113072091055CF32F3FC1F48AE00E947C008BB3F7
S113073084608BBB8FE493EC0197F1F700C0000059
S11307408BB38B7F8BBB8FE493EC0197F1F700C0E5
S11307500000CE010E9446032196C031D105E4F287
S1130760DF91CF9108950F931F93CF93DF93C0E050
S1130770D0E043C0FA01EE0FFF1FEE0FFF1FEE0F94
S1130780FF1FE255FE4FE80FF91F30812323019626
S113079002C080E090E08830910564F34F5F5F4FC2
S11307A06F5F7F4F04C0AE0160E070E02FEF6430F4
S11307B071057CF32F3F01F58BE00E947C008BB325
S11307C084608BBB8FE493EC0197F1F700C00000C9
S11307D08BB38B7F8BBB8FE493EC0197F1F700C055
S11307E0000000E010E005C0CE010E9446030F5F48
S11307F01F4F04301105C4F32196CC30D1059CF26F
S1130800DF91CF911F910F9108958EE392E00E94A2
S1130810ED0260916800709169008091AC01909143
S1130820AD01615071094EE352E00E9477028F3F9F
S113083049F4809168009091690001979093690050
S1130840809368008EE392E00E94B80208958EE3DC
S113085092E00E94ED0260916800709169008091BD
S1130860AC019091AD016F5F7F4F4EE352E00E9467
S113087077028F3F49F48091680090916900019656
S113088090936900809368008EE392E00E94B8021E
S113089008958EE392E00E94ED02609168007091E9
S11308A069008091AC019091AD014EE352E0019654
S11308B00E9477028F3F71F48091AC019091AD0159
S11308C001969093AD018093AC018EE392E00E9477
S11308D0B80208958EE392E00E94B80282E090E0AC
S11308E090936900809368001092AD011092AC015E
S11308F020E030E013C0F901EE0FFF1FEE0FFF1FE1
S1130900E25CFD4FE80FF91F1082019602C080E0FF
S113091090E0843091057CF32F5F3F4F2430310504
S1130920B4F38FEF9FEF90936700809366000E946B
S1130930B3030E9478030895909367008093660040
S11309400097E9F022C0CB01880F991F880F991FE7
S1130950FC01E653FF4FE20FF31F4081825C9D4F81
S1130960FC01E20FF31F40832F5F3F4F02C020E0E2
S113097030E0243031053CF36F5F7F4F02C060E00C
S113098070E0643071059CF308958130910519F588
S11309901CC0CB01880F991F880F991FFC01E654D6
S11309A0FF4FE20FF31F4081825C9D4FFC01E20F79
S11309B0F31F40832F5F3F4F02C020E030E024301C
S11309C031053CF36F5F7F4F02C060E070E064303C
S11309D071059CF308958230910519F51CC0CB0173
S11309E0880F991F880F991FFC01E655FF4FE20FEE
S11309F0F31F4081825C9D4FFC01E20FF31F408393
S1130A002F5F3F4F02C020E030E0243031053CF33B
S1130A106F5F7F4F02C060E070E0643071059CF34B
S1130A2008958330910519F51CC0CB01880F991FD7
S1130A30880F991FFC01E656FF4FE20FF31F408118
S1130A40825C9D4FFC01E20FF31F40832F5F3F4FF9
S1130A5002C020E030E0243031053CF36F5F7F4F6B
S1130A6002C060E070E0643071059CF30895843046
S1130A70910519F51CC0CB01880F991F880F991F88
S1130A80FC01E657FF4FE20FF31F4081825C9D4F4C
S1130A90FC01E20FF31F40832F5F3F4F02C020E0B1
S1130AA030E0243031053CF36F5F7F4F02C060E0DB
S1130AB070E0643071059CF308958530910519F553
S1130AC01CC0CB01880F991F880F991FFC01E658A1
S1130AD0FF4FE20FF31F4081825C9D4FFC01E20F48
S1130AE0F31F40832F5F3F4F02C020E030E02430EB
S1130AF031053CF36F5F7F4F02C060E070E064300B
S1130B0071059CF30895069711F51CC0CB01880F5D
S1130B10991F880F991FFC01E659FF4FE20FF31F3D
S1130B204081825C9D4FFC01E20FF31F40832F5FE5
S1130B303F4F02C020E030E0243031053CF36F5FCA
S1130B407F4F02C060E070E0643071059CF308954B
S1130B5020E030E015C0F901EE0FFF1FEE0FFF1F7C
S1130B60EE0FFF1FE255FE4FE80FF91F10820196AA
S1130B7002C080E090E0883091056CF32F5F3F4F16
S1130B8020313105B4F38FEA90E0909365008093AF
S1130B9064001092AB011092AA018BB384608BBBEA
S1130BA08FE493EC0197F1F700C000008BB38B7FC7
S1130BB08BBB8FE493EC0197F1F700C0000008951C
S1130BC084B7806884BF84B7806884BF80E090E085
S1130BD00E944900CB010E9471078CEF8ABB8FEF02
S1130BE087BB84BB81BB8BB38B7F8BBB0E945C00B8
S1130BF00E947400E12CF12C00E010E0C7E0D0E08A
S1130C0015BAFE01EE55FE4F908185B3892B85BB45
S1130C10CE010E942103809588BBCE0108960E94D4
S1130C20210380959BB3906F9BBB92B3906F92BB53
S1130C302BB390E1899FA0011124942F9F609223EC
S1130C409BBB92B38F60892382BB83EF91E00197B2
S1130C50F1F700C000008FEF88BB8BB3806F8BBBB4
S1130C6082B3806F82BBC730D10511F0219602C0D8
S1130C70C0E0D0E08091AC019091AD01892BE1F509
S1130C8080916800909169000297B1F580916600A7
S1130C9090916700019681F5F701EE0FFF1FE65270
S1130CA0FF4F808191810E949C048FEFE81AF80A1B
S1130CB094E6E916F10411F4E12CF12C4EE352E030
S1130CC062E070E080E090E00E9477028F3F29F4B8
S1130CD0809166000E947C000BC089E00E947C0029
S1130CE00E94A8058FE493EC0197F1F700C000007F
S1130CF08EE392E00E94B8020F5F1F4F8091640060
S1130D00909165000817190729F50E9449048091FC
S1130D10AA019091AB0101969093AB018093AA0133
S1130D20C29781F41092AB011092AA0180916400E1
S1130D3090916500843691052CF0C29790936500DC
S1130D408093640081EE94E00197F1F700C0000005
S1130D5000E010E080E00E9461005C0181E00E94FC
S1130D6061006C0194E6A916B10444F40E940504E0
S1130D708FE493EC0197F1F700C0000095E8A91601
S1130D8093E0B90644F00E9427048FE493EC0197A2
S1130D90F1F700C0000095E8C91693E0D90644F0C5
S1130DA00E94490487EA91E60197F1F700C0000028
S1130DB094E6C916D1040CF023CF8EE392E00E948E
S1130DC0C6018EE392E00E94ED026091680070918A
S1130DD069008091AC019091AD014EE252E00E9415
S1130DE077028F3F11F51CC0CA01880F991F880F25
S1130DF0991FFC01E25DFD4FE20FF31F6081825CED
S1130E009D4FFC01E20FF31F60832F5F3F4F02C031
S1130E1020E030E0243031053CF34F5F5F4F02C0E7
S1130E2040E050E0443051059CF38EE392E00E9490
S1130E30B80283E294EF0197F1F700C00000E0CE1E
S1130E408F929F92AF92BF92CF92DF92EF92FF92D6
S1130E50CF93DF93EC01688179818A819B8161154D
S1130E6071058105910521F464E279ED8BE597E044
S1130E702DE133EF41E050E00E947C0749015A0123
S1130E809B01AC01A7EAB1E40E949B076B017C01C2
S1130E90ACEEB4EFA50194010E94A907DC01CB01DB
S1130EA08C0D9D1DAE1DBF1DB7FF03C00197A10989
S1130EB0B04888839983AA83BB839F77DF91CF91BE
S1130EC0FF90EF90DF90CF90BF90AF909F908F9066
S1130ED008950E942007089580E690E00E9420076C
S1130EE00895A0E0B0E08093600090936100A09327
S1130EF06200B09363000895052E97FB1EF40094DE
S1130F000E94930757FD07D00E94AE0707FC03D049
S1130F104EF40C94930750954095309521953F4F8E
S1130F204F4F5F4F089590958095709561957F4FD1
S1130F308F4F9F4F08950E94D007A59F900DB49F97
S1130F40900DA49F800D911D11240895B7FF0C945A
S1130F509B070E949B07821B930B0895A1E21A2E04
S1130F60AA1BBB1BFD010DC0AA1FBB1FEE1FFF1F49
S1130F70A217B307E407F50720F0A21BB30BE40B99
S1130F80F50B661F771F881F991F1A9469F76095E0
S1130F907095809590959B01AC01BD01CF0108959A
S1130FA0A29FB001B39FC001A39F700D811D1124A6
S1130FB0911DB29F700D811D1124911D0895F89407
S1050FC0FFCF5D
S1130FC201000000AF00FFFF0200FFFFFF0000FF6F
S1130FD200000000000000000000FFFF000000FF0E
S1130FE2FF00000000000000000000FFFF00FFFF00
S1130FF2000000000000000000000000FF000000EC
S1131002FF0000FFFF000000000000FF000000FFDF
S1131012000000FFFF000000000000FF000000FFCE
S1131022000000FF000000FF000000FFFF0000FFBF
S1131032FF000000000000000000000002000200A7
S11310420000000002000200060004000100050086
S11310520300020006000400000004000500020070
S1131062010005000400040004000600000003005F
S11310720000060003000400030006000000010053
S11310820200040002000200030005000400030041
S11310920200020003000600000006000500010031
S11310A20600010001000200050002000300000026
S11310B20100010005000400010005000600030010
S11310C205000500030003000200050001000600FC
S11310D206000100050003000100020005000400EF
S11310E204000300010004000000030003000400E4
S11310F200000200000000000300020002000100E0
S10D110201000102040810204080DF
S9030000FC
