:100000000C942A000C9434000C9434000C943400AA
:100010000C9434000C9434000C9434000C94340090
:100020000C9434000C9434000C9434000C94340080
:100030000C9434000C9434000C9434000C94340070
:100040000C9434000C9434000C9434000C94340060
:100050000C94340011241FBECFE5D8E0DEBFCDBF25
:100060000E9442000C94A5000C94000010BC89E191
:1000700089B980E18AB98EE080BD08955F9BFECF8B
:100080008CB108958EEF81BB8FEF84BB0E94360048
:10009000CCEFC2BB0E943E00803349F415BAA99A46
:1000A0008FE493EC0197F1F700C00000F2CF8133A9
:1000B00049F415BAAA9A87EA91E60197F1F700C0C8
:1000C0000000E7CF823349F415BAAB9A8FE493EC82
:1000D0000197F1F700C00000DCCF833349F415BA73
:1000E000AC9A8FE493EC0197F1F700C00000D1CFF8
:1000F000843349F415BAAD9A8FE493EC0197F1F784
:1001000000C00000C6CF853349F415BAAE9A8FE41B
:1001100093EC0197F1F700C00000BBCF863349F4A0
:1001200015BAAF9A8FE493EC0197F1F700C0000085
:10013000B0CF873309F0ADCF15BAA89A8FE493EC0E
:0E0140000197F1F700C00000A4CFF894FFCFA4
:00000001FF
