:100000000C942A000C9434000C9434000C943400AA
:100010000C9434000C9434000C9434000C94340090
:100020000C9434000C9434000C9434000C94340080
:100030000C9434000C9434000C9434000C94340070
:100040000C9434000C9434000C9434000C94340060
:100050000C94340011241FBECFE5D8E0DEBFCDBF25
:100060000E9436000C944A000C94000087B3816013
:1000700087BB10BC86E089B981E18AB98EE080BD7A
:100080005F9BFECF8CB1803FD9F798B381E0892781
:0800900088BBF6CFF894FFCF06
:00000001FF
