S01700004763634170706C69636174696F6E312E737265635B
S11300000C942A000C9434000C9434000C943400A6
S11300100C9434000C9434000C9434000C9434008C
S11300200C9434000C9434000C9434000C9434007C
S11300300C9434000C9434000C9434000C9434006C
S11300400C9434000C9434000C9434000C9434005C
S11300500C94340011241FBECFE5D8E0DEBFCDBF21
S11300600E9436000C9446000C9400008FEF81BB74
S113007012BA82B3846082BB8FE493EC0197F1F7E8
S113008000C0000082B38B7F82BBF3CFF894FFCF14
S9030000FC
