S00B00006D63312E7372656318
S11300000C942A000C9434000C9434000C943400A6
S11300100C9434000C9434000C9434000C9434008C
S11300200C9434000C9434000C9434000C9434007C
S11300300C9434000C9434000C9434000C9434006C
S11300400C9434000C9434000C9434000C9434005C
S11300500C94340011241FBECFE5D8E0DEBFCDBF21
S11300600E9436000C9453000C9400008FEF81BB67
S11300701ABA81E090E002C081E090E0C899FECF16
S113008082BBEFE4F3EC3197F1F700C0000012BA41
S1130090EFE4F3EC3197F1F700C0000001968930EA
S10D00A0910561F7E9CFF894FFCF52
S9030000FC
