S0150000636865636B5F636F6C5F726F772E73726563BD
S11300000C942A000C9447000C9447000C9447006D
S11300100C9447000C9447000C9447000C94470040
S11300200C9447000C9447000C9447000C94470030
S11300300C9447000C9447000C9447000C94470020
S11300400C9447000C9447000C9447000C94470010
S11300500C94470011241FBECFE5D8E0DEBFCDBF0E
S113006011E0A0E6B0E0EEE0F1E102C005900D92EF
S1130070A236B107D9F722E0A2E6B1E001C01D9291
S1130080AE30B207E1F70E944E070C9485080C9439
S11300900000FC010FB6F89460910A0270910B0203
S11300A080910C0290910D020FBE309721F0608375
S11300B0718382839383089581E886B980E487B944
S11300C008958770806487B986B1806486B9349B4B
S11300D0FECF86B1806186B924B185B190E0982FB6
S11300E08827820F911D089510BC89E189B988E1A0
S11300F08AB98EE080BD08955D9BFECF8CB987EEF2
S113010093E00197F1F700C000000895CF92DF92C9
S1130110EF92FF920F931F93CF93DF93C12CD12CB7
S113012047C01416150624F48C010150110902C0AD
S113013000E010E0E12CF12C22C0D801AA0FBB1F73
S1130140AA0FBB1FA60FB71FF801E41BF50BEE0F98
S1130150FF1FEE0FFF1FE60FF71FEC0FFD1FE081DF
S1130160AC0FBD1FEC93219602C0C0E0D0E0C817CD
S1130170D9071CF3041B150BEFEFEE1AFE0AFC0162
S11301803197EE16FF068CF3A0E0B0E00BC0F80147
S1130190EE0FFF1FEE0FFF1FE60FF71FEA0FFB1F07
S11301A010821196A817B90794F3EFEFCE1ADE0A5E
S11301B0C216D3060CF4B5CFDF91CF911F910F91E6
S11301C0FF90EF90DF90CF900895AF92BF92CF92BF
S11301D0DF92EF92FF920F931F93CF93DF935C0113
S11301E0790100E010E040C0141615061CF4C501A6
S11301F0019702C080E090E020E030E01CC0FD01E7
S1130200EE0FFF1FEE0FFF1FE60FF71F6C01C41A5E
S1130210D50ACE0EDF1EE601D880E80FF91FD08282
S1130220119602C0A0E0B0E0AA15BB0544F3841BFC
S1130230950B2F5F3F4FF50131972E173F0794F32E
S113024020E030E00CC0F901EE0FFF1FEE0FFF1F9E
S1130250E60FF71FE80FF91F10822F5F3F4F2A1593
S11302603B058CF30F5F1F4F0E151F050CF4BCCF1D
S1130270DF91CF911F910F91FF90EF90DF90CF907E
S1130280BF90AF9008950F931F93CF93DF93EC012A
S113029020E030E00FEF1FEF1BC0F901EE0FFF1F4E
S11302A0EE0FFF1FEC0FFD1FE80FF91F40814F3FBA
S11302B041F0019602C080E090E0843091056CF337
S11302C001C089010F3F8FEF180729F42F5F3F4FBB
S11302D02430310584F398014FEF5FEFBE0184E0D1
S11302E090E00E94860020E030E06FEF7FEFAFEFF8
S11302F0BFEF25C0FC01EE0FFF1FEE0FFF1FEC0F39
S1130300FD1FE20FF31F40814F3F31F4AF3F8FEFEA
S1130310B80751F0B9010AC0019602C080E090E02C
S1130320843091053CF302C0B901D901AF3F8FEF8E
S1130330B80719F0621773072CF02F5F3F4F243072
S1130340310564F36A1B7B0BCB01019662307105A6
S113035020F48D010150110904C00397029708F499
S11303608D01112334F411950195110941E050E0F8
S113037002C04FEF5FEF9801BE0184E090E00E945D
S1130380E500DF91CF911F910F910895CF93DF93F3
S1130390CDB7DEB760970FB6F894DEBF0FBECDBF02
S11303A0DC0160E070E01FC09B01220F331F220FAD
S11303B0331FFD01E20FF31FE40FF51F9081E1E00D
S11303C0F0E0EC0FFD1F2E0F3F1FF901E40FF51FA6
S11303D090834F5F5F4F02C040E050E044305105CE
S11303E01CF36F5F7F4F64307105B4F320E030E09D
S11303F021C0FC01EE0FFF1FEE0FFF1F41E050E094
S11304004C0F5D1FE40FF51FE20FF31F4081F9014C
S1130410EE0FFF1FEE0FFF1FE651FE4FE80FF91F0F
S11304204083019602C080E090E0843091050CF393
S11304302F5F3F4F24303105B4F360E070E01FC0FC
S1130440CB01880F991F880F991FFC01E651FE4FBD
S1130450E20FF31F4081E1E0F0E0EC0FFD1F8E0F8F
S11304609F1FFC01E20FF31F40832F5F3F4F02C029
S113047020E030E0243031051CF36F5F7F4F64309F
S11304807105B4F360E070E022C0E3E0F0E0E21B49
S1130490F30BCB01880F991F880F991F41E050E09F
S11304A04C0F5D1F480F591FE40FF51F4081865103
S11304B09E4FFC01E20FF31F40832F5F3F4F02C0AA
S11304C020E030E02430310504F36F5F7F4F643067
S11304D07105B4F38AEE91E00E94430160960FB671
S11304E0F894DEBF0FBECDBFDF91CF910895CF93B7
S11304F0DF93EC01A0E0B0E02EC0FD01EE0FFF1F82
S1130500EE0FFF1FE40FF51FE20FF31F90819F3FD3
S1130510C9F4FD01EC0FFD1FE031F1050CF5C90133
S1130520860F971F88309105E8F4EE0FFF1FEE0F3A
S1130530FF1FEE0FFF1FE659FE4FE80FF91F8081E2
S11305408F3F91F02F5F3F4F02C020E030E0243016
S113055031059CF21196A430B105BCF38FEF05C0B0
S113056080E003C080E001C080E0DF91CF91089576
S1130570DC0160E070E02DC0FB01EE0FFF1FEE0F09
S1130580FF1FEA0FFB1FE20FF31F90819F3FB9F497
S11305904091680150916901460F571FE09168002E
S11305A0F0916900E20FF31F440F551F440F551FCC
S11305B0440F551F46595E4FE40FF51F90832F5F7C
S11305C03F4F02C020E030E024303105ACF26F5FD1
S11305D07F4F64307105B4F3089560E070E02DC07E
S11305E0FB01EE0FFF1FEE0FFF1FE80FF91FE20FD5
S11305F0F31F40814F3FB9F4409168015091690164
S1130600460F571FE0916800F0916900E20FF31F55
S1130610440F551F440F551F440F551F46595E4F35
S1130620E40FF51F10822F5F3F4F02C020E030E03F
S113063024303105ACF26F5F7F4F64307105B4F341
S11306400895AC0120E030E0A0E0B0E01AC0FA0167
S1130650EE0FFF1FEE0FFF1FEE0FFF1FE659FE4FB9
S1130660E20FF31F90819F3F51F461E070E0022E8E
S113067002C0660F771F0A94E2F7A62BB72B2F5FF1
S11306803F4F283031051CF3CD01089522C0FC01F1
S11306903197EE0FFF1FEE0FFF1FEE0FFF1FE659FE
S11306A0FE4FE20FF31F4081FC01EE0FFF1FEE0F20
S11306B0FF1FEE0FFF1FE659FE4FE20FF31F4083AB
S11306C02F5F3F4F02C020E030E028303105FCF2BC
S11306D0019718161906BCF380E090E005C0FC01F0
S11306E0E659FE4F1082019688309105C4F30895AF
S11306F0CF93DF93C0E0D0E030C0FE01EE0FFF1FC8
S1130700EE0FFF1FEE0FFF1FE659FE4FE80FF91F14
S113071030812323019603C080E090E02FEF8830DE
S113072091055CF32F3FC1F48AE00E947C008BB3F7
S113073084608BBB8FE493EC0197F1F700C0000059
S11307408BB38B7F8BBB8FE493EC0197F1F700C0E5
S11307500000CE010E9446032196C031D105E4F287
S1130760DF91CF9108950F931F93CF93DF93C0E050
S1130770D0E044C0FA01EE0FFF1FEE0FFF1FEE0F93
S1130780FF1FE659FE4FE80FF91F3081232301961E
S113079002C080E090E08830910564F34F5F5F4FC2
S11307A06F5F7F4F04C0AE0160E070E02FEF6430F4
S11307B071057CF32F3F09F58BE00E947C008BB31D
S11307C084608BBB8FE493EC0197F1F700C00000C9
S11307D08BB38B7F8BBB8FE493EC0197F1F700C055
S11307E0000000E010E006C0CE0103960E9446031C
S11307F00F5F1F4F04301105BCF32196CD30D10596
S113080094F2DF91CF911F910F9108958AEF91E0B7
S11308100E94ED0260916800709169008091680106
S113082090916901615071094AEF51E00E94770289
S11308308F3F49F4809168009091690001979093EB
S11308406900809368008AEF91E00E94B8020895DD
S11308508AEF91E00E94ED02609168007091690056
S113086080916801909169016F5F7F4F4AEF51E079
S11308700E9477028F3F49F480916800909169004B
S1130880019690936900809368008AEF91E00E943A
S1130890B80208958AEF91E00E94ED026091680029
S11308A07091690080916801909169014AEF51E06B
S11308B001960E9477028F3F71F4809168019091B4
S11308C06901019690936901809368018AEF91E030
S11308D00E94B80208958AEF91E00E94B80282E073
S11308E090E09093690080936800109269011092DF
S11308F0680120E030E013C0F901EE0FFF1FEE0F96
S1130900FF1FE650FE4FE80FF91F1082019602C048
S113091080E090E0843091057CF32F5F3F4F2430DA
S11309203105B4F38FEF9FEF9093670080936600D7
S11309300E94B3030E94780308950E94120867E09E
S113094070E00E949E072091660130916701309308
S113095067002093660090936701809366012115D8
S11309603105E9F022C0CB01880F991F880F991F28
S1130970FC01E65BFE4FE20FF31F408186509E4F61
S1130980FC01E20FF31F40832F5F3F4F02C020E0C2
S113099030E0243031053CF36F5F7F4F02C060E0EC
S11309A070E0643071059CF308952130310519F528
S11309B01CC0CB01880F991F880F991FFC01E65CAE
S11309C0FE4FE20FF31F408186509E4FFC01E20F61
S11309D0F31F40832F5F3F4F02C020E030E02430FC
S11309E031053CF36F5F7F4F02C060E070E064301C
S11309F071059CF308952230310519F51CC0CB0113
S1130A00880F991F880F991FFC01E65DFE4FE20FC6
S1130A10F31F408186509E4FFC01E20FF31F408379
S1130A202F5F3F4F02C020E030E0243031053CF31B
S1130A306F5F7F4F02C060E070E0643071059CF32B
S1130A4008952330310519F51CC0CB01880F991F77
S1130A50880F991FFC01E65EFE4FE20FF31F4081F1
S1130A6086509E4FFC01E20FF31F40832F5F3F4FE0
S1130A7002C020E030E0243031053CF36F5F7F4F4B
S1130A8002C060E070E0643071059CF30895243086
S1130A90310519F51CC0CB01880F991F880F991FC8
S1130AA0FC01E65FFE4FE20FF31F408186509E4F2C
S1130AB0FC01E20FF31F40832F5F3F4F02C020E091
S1130AC030E0243031053CF36F5F7F4F02C060E0BB
S1130AD070E0643071059CF308952530310519F5F3
S1130AE01CC0CB01880F991F880F991FFC01E65089
S1130AF0FF4FE20FF31F408186509E4FFC01E20F2F
S1130B00F31F40832F5F3F4F02C020E030E02430CA
S1130B1031053CF36F5F7F4F02C060E070E06430EA
S1130B2071059CF308952630310511F51CC0CB01E5
S1130B30880F991F880F991FFC01E651FF4FE20FA0
S1130B40F31F408186509E4FFC01E20FF31F408348
S1130B502F5F3F4F02C020E030E0243031053CF3EA
S1130B606F5F7F4F02C060E070E0643071059CF3FA
S1130B70089520E030E015C0F901EE0FFF1FEE0FDD
S1130B80FF1FEE0FFF1FE659FE4FE80FF91F1082FB
S1130B90019602C080E090E0883091056CF32F5FED
S1130BA03F4F20313105B4F38FEA90E09093650014
S1130BB08093640010926501109264018BB3846089
S1130BC08BBB8FE493EC0197F1F700C000008BB36B
S1130BD08B7F8BBB8FE493EC0197F1F700C000008F
S1130BE00895CF93DF93EC0115BAFC01E65AFE4F4A
S1130BF0908185B3892B85BBCE010E94210380950A
S1130C0088BBCE0108960E94210380959BB3906F08
S1130C109BBB92B3906F92BB2BB390E1899FA001D1
S1130C201124942F9F6092239BBB92B38F608923DE
S1130C3082BB83EF91E00197F1F700C000008FEFD2
S1130C4088BB8BB3806F8BBB82B3806F82BBDF9119
S1130C50CF910895CF93DF9360E070E01DC0CB0186
S1130C60880F991F880F991F880F991FFC01E65957
S1130C70FF4FE20FF31F408186599E4FFC01E20FA4
S1130C80F31F40832F5F3F4F02C020E030E0283045
S1130C9031052CF36F5F7F4F60317105B4F3C7E00A
S1130CA0D0E0CE010E94F105C730D10511F02196A4
S1130CB002C0C0E0D0E080E00E946100843691056B
S1130CC084F70E94B90587E00E947C00DF91CF91F0
S1130CD008958091680190916901892B69F580914B
S1130CE0680090916900029739F5809166009091AF
S1130CF06700019609F50E949D044AEF51E062E005
S1130D0070E080E090E00E9477028F3F69F089E014
S1130D100E947C000E94B9050E942A068FE493EC8D
S1130D200197F1F700C00000809166010E947C00E9
S1130D308AEF91E00E94B8020895CF93DF9380E098
S1130D400E946100EC0181E00E946100853823E08B
S1130D5092079CF0809162019091630101969093B7
S1130D60630180936201C3970CF485C00E9406045A
S1130D7010926301109262017EC0843691059CF446
S1130D808091620190916301019690936301809335
S1130D906201C3970CF46FC00E942804109263018F
S1130DA01092620168C0C53883E0D8079CF0809136
S1130DB062019091630101969093630180936201B3
S1130DC0C3970CF458C00E944A0410926301109215
S1130DD0620151C0C436D1050CF04DC0809162014E
S1130DE0909163010196909363018093620184342E
S1130DF091050CF440C08AEF91E00E94C6018AEF8D
S1130E0091E00E94ED026091680070916900809108
S1130E106801909169014AEE51E00E9477028F3F88
S1130E2011F51CC0CB01880F991F880F991FFC0175
S1130E30E651FE4FE20FF31F408186509E4FFC01A6
S1130E40E20FF31F40832F5F3F4F02C020E030E0EA
S1130E50243031053CF36F5F7F4F02C060E070E0E7
S1130E60643071059CF38AEF91E00E94B8021092FD
S1130E70630110926201DF91CF91089584B7806875
S1130E8084BF84B7806884BF8CEF8ABB8FEF87BB35
S1130E9084BB81BB8BB38B7F8BBB089580E090E0D8
S1130EA00E944900CB010E9417080E943E070E943D
S1130EB05C000E9474000E942A0600E010E0C7E073
S1130EC0D0E0CE010E94F105C730D10511F0219682
S1130ED002C0C0E0D0E00E9469060E949D060F5F38
S1130EE01F4F80916400909165000817190749F716
S1130EF00E944A0480916401909165010196909347
S1130F00650180936401C29781F410926501109287
S1130F1064018091640090916500843691052CF001
S1130F20C297909365008093640081EE94E00197EA
S1130F30F1F700C0000000E010E0C3CF97FB072EDC
S1130F4016F4009407D077FD09D00E94B20707FC7D
S1130F5005D03EF4909581959F4F089570956195C5
S1130F607F4F0895AA1BBB1B51E107C0AA1FBB1FDB
S1130F70A617B70710F0A61BB70B881F991F5A9521
S1130F80A9F780959095BC01CD0108958F929F9209
S1130F90AF92BF92CF92DF92EF92FF92CF93DF9303
S1130FA0EC01688179818A819B81611571058105D4
S1130FB0910521F464E279ED8BE597E02DE133EFBF
S1130FC041E050E00E94220849015A019B01AC0112
S1130FD0A7EAB1E40E9441086B017C01ACEEB4EFD6
S1130FE0A50194010E944F08DC01CB018C0D9D1DCD
S1130FF0AE1DBF1DB7FF03C00197A109B048888388
S11310009983AA83BB839F77DF91CF91FF90EF9061
S1131010DF90CF90BF90AF909F908F9008950E94E3
S1131020C607089580E690E00E94C6070895A0E0F0
S1131030B0E08093600090936100A0936200B0934D
S113104063000895052E97FB1EF400940E9439084E
S113105057FD07D00E94540807FC03D04EF40C94AB
S1131060390850954095309521953F4F4F4F5F4F2C
S1131070089590958095709561957F4F8F4F9F4F00
S113108008950E947608A59F900DB49F900DA49F8B
S1131090800D911D11240895B7FF0C9441080E94FE
S11310A04108821B930B0895A1E21A2EAA1BBB1BB5
S11310B0FD010DC0AA1FBB1FEE1FFF1FA217B30720
S11310C0E407F50720F0A21BB30BE40BF50B661F36
S11310D0771F881F991F1A9469F7609570958095FA
S11310E090959B01AC01BD01CF010895A29FB00171
S11310F0B39FC001A39F700D811D1124911DB29F48
S1111100700D811D1124911D0895F894FFCFE8
S113110E01000000AF00FFFF02000000000000001D
S113111E00000000000000000000000000000000BD
S113112E000000000000000000000000FF000000AE
S113113E00000000FFFF000000000000FFFFFF00A2
S113114E00000000FFFFFFFF00000000FFFFFFFF95
S113115E00000000FFFFFF0000000000FFFF000082
S113116E00000000FF00000000000000000000006E
S113117E000000000000000000000000000000005D
S113118E00000000000000000000FFFFFF0000FF51
S113119E00000000000000000000FFFF000000FF40
S11311AEFF00000000000000000000FFFF00FFFF32
S11311BE000000000000000000000000FF0000001E
S11311CEFF0000FFFF000000000000FF000000FF12
S11311DE000000FFFF000000000000FF000000FF01
S11311EE000000FF000000FF000000FFFF0000FFF2
S11311FEFF0000000000000000000102040810209F
S105120E40801A
S9030000FC
