S01700004763634170706C69636174696F6E312E737265635B
S11300000C942A000C9434000C9434000C943400A6
S11300100C9434000C9434000C9434000C9434008C
S11300200C9434000C9434000C9434000C9434007C
S11300300C9434000C9434000C9434000C9434006C
S11300400C9434000C9434000C9434000C9434005C
S11300500C94340011241FBECFE5D8E0DEBFCDBF21
S11300600E9436000C944B000C94000082E08ABB82
S11300708BB38E7F8BBBC89B04C08BB382608BBB5E
S113008003C08BB38D7F8BBB87EA91E60197F1F7B1
S10D009000C00000F0CFF894FFCF89
S9030000FC
