S01100006669727374436F64652E7372656370
S11300000C942A000C9447000C9447000C9447006D
S11300100C9447000C9447000C9447000C94470040
S11300200C9447000C9447000C9447000C94470030
S11300300C9447000C9447000C9447000C94470020
S11300400C9447000C9447000C9447000C94470010
S11300500C94470011241FBECFE5D8E0DEBFCDBF0E
S113006010E0A0E6B0E0E4E0FFE002C005900D92ED
S1130070A03EB107D9F721E0A0EEB0E001C01D9287
S1130080A638B207E1F70E94B6050C9480070C94D9
S11300900000FC010FB6F894609182017091830115
S11300A080918401909185010FBE309721F0608387
S11300B0718382839383089510BC89E189B988E0B0
S11300C08AB98EE880BD08955D9BFECF8CB987EE1A
S11300D093E00197F1F700C000000895CF92DF92FA
S11300E0EF92FF920F931F93CF93DF93C12CD12CE8
S11300F047C01416150624F48C010150110902C0DE
S113010000E010E0E12CF12C22C0D801AA0FBB1FA3
S1130110AA0FBB1FA60FB71FF801E41BF50BEE0FC8
S1130120FF1FEE0FFF1FE60FF71FEC0FFD1FE0810F
S1130130AC0FBD1FEC93219602C0C0E0D0E0C817FD
S1130140D9071CF3041B150BEFEFEE1AFE0AFC0192
S11301503197EE16FF068CF3A0E0B0E00BC0F80177
S1130160EE0FFF1FEE0FFF1FE60FF71FEA0FFB1F37
S113017010821196A817B90794F3EFEFCE1ADE0A8E
S1130180C216D3060CF4B5CFDF91CF911F910F9116
S1130190FF90EF90DF90CF900895AF92BF92CF92EF
S11301A0DF92EF92FF920F931F93CF93DF935C0143
S11301B0790100E010E040C0141615061CF4C501D6
S11301C0019702C080E090E020E030E01CC0FD0117
S11301D0EE0FFF1FEE0FFF1FE60FF71F6C01C41A8F
S11301E0D50ACE0EDF1EE601D880E80FF91FD082B3
S11301F0119602C0A0E0B0E0AA15BB0544F3841B2D
S1130200950B2F5F3F4FF50131972E173F0794F35E
S113021020E030E00CC0F901EE0FFF1FEE0FFF1FCE
S1130220E60FF71FE80FF91F10822F5F3F4F2A15C3
S11302303B058CF30F5F1F4F0E151F050CF4BCCF4D
S1130240DF91CF911F910F91FF90EF90DF90CF90AE
S1130250BF90AF9008950F931F93CF93DF93EC015A
S113026020E030E00FEF1FEF1BC0F901EE0FFF1F7E
S1130270EE0FFF1FEC0FFD1FE80FF91F40814F3FEA
S113028041F0019602C080E090E0843091056CF367
S113029001C089010F3F8FEF180729F42F5F3F4FEB
S11302A02430310584F398014FEF5FEFBE0184E001
S11302B090E00E946E0020E030E06FEF7FEFAFEF40
S11302C0BFEF25C0FC01EE0FFF1FEE0FFF1FEC0F69
S11302D0FD1FE20FF31F40814F3F31F4AF3F8FEF1B
S11302E0B80751F0B9010AC0019602C080E090E05D
S11302F0843091053CF302C0B901D901AF3F8FEFBF
S1130300B80719F0621773072CF02F5F3F4F2430A2
S1130310310564F36A1B7B0BCB01019662307105D6
S113032020F48D010150110904C00397029708F4C9
S11303308D01112334F411950195110941E050E028
S113034002C04FEF5FEF9801BE0184E090E00E948D
S1130350CD00DF91CF911F910F910895CF93DF933B
S1130360CDB7DEB760970FB6F894DEBF0FBECDBF32
S1130370DC0160E070E01FC09B01220F331F220FDD
S1130380331FFD01E20FF31FE40FF51F9081E1E03D
S1130390F0E0EC0FFD1F2E0F3F1FF901E40FF51FD6
S11303A090834F5F5F4F02C040E050E044305105FE
S11303B01CF36F5F7F4F64307105B4F320E030E0CD
S11303C021C0FC01EE0FFF1FEE0FFF1F41E050E0C4
S11303D04C0F5D1FE40FF51FE20FF31F4081F9017D
S11303E0EE0FFF1FEE0FFF1FEE59FE4FE80FF91F30
S11303F04083019602C080E090E0843091050CF3C4
S11304002F5F3F4F24303105B4F360E070E01FC02C
S1130410CB01880F991F880F991FFC01EE59FE4FDD
S1130420E20FF31F4081E1E0F0E0EC0FFD1F8E0FBF
S11304309F1FFC01E20FF31F40832F5F3F4F02C059
S113044020E030E0243031051CF36F5F7F4F6430CF
S11304507105B4F360E070E022C0E3E0F0E0E21B79
S1130460F30BCB01880F991F880F991F41E050E0CF
S11304704C0F5D1F480F591FE40FF51F40818E5923
S11304809E4FFC01E20FF31F40832F5F3F4F02C0DA
S113049020E030E02430310504F36F5F7F4F643097
S11304A07105B4F382E691E00E942B0160960FB6C9
S11304B0F894DEBF0FBECDBFDF91CF910895CF93E7
S11304C0DF93EC01A0E0B0E02EC0FD01EE0FFF1FB2
S11304D0EE0FFF1FE40FF51FE20FF31F90819F3F04
S11304E0C9F4FD01EC0FFD1FE031F1050CF5C90164
S11304F0860F971F88309105E8F4EE0FFF1FEE0F6B
S1130500FF1FEE0FFF1FEE51FF4FE80FF91F808111
S11305108F3F91F02F5F3F4F02C020E030E0243046
S113052031059CF21196A430B105BCF38FEF05C0E0
S113053080E003C080E001C080E0DF91CF910895A6
S1130540DC0160E070E02DC0FB01EE0FFF1FEE0F39
S1130550FF1FEA0FFB1FE20FF31F90819F3FB9F4C7
S11305604091E0005091E100460F571FE091660072
S1130570F0916700E20FF31F440F551F440F551FFE
S1130580440F551F4E515F4FE40FF51F90832F5FAB
S11305903F4F02C020E030E024303105ACF26F5F01
S11305A07F4F64307105B4F3089560E070E02DC0AE
S11305B0FB01EE0FFF1FEE0FFF1FE80FF91FE20F05
S11305C0F31F40814F3FB9F44091E0005091E100A6
S11305D0460F571FE0916600F0916700E20FF31F8A
S11305E0440F551F440F551F440F551F4E515F4F65
S11305F0E40FF51F10822F5F3F4F02C020E030E070
S113060024303105ACF26F5F7F4F64307105B4F371
S11306100895AC0120E030E0A0E0B0E01AC0FA0197
S1130620EE0FFF1FEE0FFF1FEE0FFF1FEE51FF4FE8
S1130630E20FF31F90819F3F51F461E070E0022EBE
S113064002C0660F771F0A94E2F7A62BB72B2F5F21
S11306503F4F283031051CF3CD01089522C0FC0121
S11306603197EE0FFF1FEE0FFF1FEE0FFF1FEE512E
S1130670FF4FE20FF31F4081FC01EE0FFF1FEE0F4F
S1130680FF1FEE0FFF1FEE51FF4FE20FF31F4083DA
S11306902F5F3F4F02C020E030E028303105FCF2EC
S11306A0019718161906BCF380E090E005C0FC0120
S11306B0EE51FF4F1082019688309105C4F30895DE
S11306C0CF93DF93C0E0D0E030C0FE01EE0FFF1FF8
S11306D0EE0FFF1FEE0FFF1FEE51FF4FE80FF91F44
S11306E030812323019603C080E090E02FEF88300F
S11306F091055CF32F3FC1F48AE00E94640082B349
S1130700806882BB8FE493EC0197F1F700C000008E
S113071082B38F7782BB8FE493EC0197F1F700C02B
S11307200000CE010E942E032196C031D105E4F2CF
S1130730DF91CF9108950F931F93CF93DF93C0E080
S1130740D0E043C0FA01EE0FFF1FEE0FFF1FEE0FC4
S1130750FF1FEE51FF4FE80FF91F3081232301964D
S113076002C080E090E08830910564F34F5F5F4FF2
S11307706F5F7F4F04C0AE0160E070E02FEF643024
S113078071057CF32F3F01F58BE00E94640082B376
S1130790806882BB8FE493EC0197F1F700C00000FE
S11307A082B38F7782BB8FE493EC0197F1F700C09B
S11307B0000000E010E005C0CE010E942E030F5F90
S11307C01F4F04301105C4F32196CC30D1059CF29F
S11307D0DF91CF911F910F91089582E791E00E94DC
S11307E0D50260916600709167008091E00090915D
S11307F0E1006150710942E751E00E945F028F3FBE
S113080049F4809166009091670001979093670086
S11308108093660082E791E00E94A002089582E737
S113082091E00E94D502609166007091670080910A
S1130830E0009091E1006F5F7F4F42E751E00E943A
S11308405F028F3F49F480916600909167000196A2
S1130850909367008093660082E791E00E94A00273
S1130860089582E791E00E94D5026091660070913C
S113087067008091E0009091E10042E751E0019629
S11308800E945F028F3F71F48091E0009091E1003B
S113089001969093E1008093E00082E791E00E944A
S11308A0A002089582E791E00E94A00282E090E015
S11308B090936700809366001092E1001092E0002C
S11308C020E030E013C0F901EE0FFF1FEE0FFF1F11
S11308D0EE58FE4FE80FF91F1082019602C080E027
S11308E090E0843091057CF32F5F3F4F2430310535
S11308F0B4F38FEF9FEF90936500809364000E94A0
S11309009B030E94600308950E940D0767E070E056
S11309100E949906282F392F8093640090936500D4
S113092021153105E9F022C0CB01880F991F880FEA
S1130930991FFC01E853FF4FE20FF31F40818E58CB
S11309409E4FFC01E20FF31F40832F5F3F4F02C015
S113095020E030E0243031053CF36F5F7F4F02C06C
S113096060E070E0643071059CF308952130310536
S113097019F51CC0CB01880F991F880F991FFC0122
S1130980E854FF4FE20FF31F40818E589E4FFC0145
S1130990E20FF31F40832F5F3F4F02C020E030E09F
S11309A0243031053CF36F5F7F4F02C060E070E09C
S11309B0643071059CF308952230310519F51CC08B
S11309C0CB01880F991F880F991FFC01E855FF4F31
S11309D0E20FF31F40818E589E4FFC01E20FF31F7C
S11309E040832F5F3F4F02C020E030E024303105C8
S11309F03CF36F5F7F4F02C060E070E064307105CC
S1130A009CF308952330310519F51CC0CB01880FE0
S1130A10991F880F991FFC01E856FF4FE20FF31F3F
S1130A2040818E589E4FFC01E20FF31F40832F5FDD
S1130A303F4F02C020E030E0243031053CF36F5FCB
S1130A407F4F02C060E070E0643071059CF308954C
S1130A502430310519F51CC0CB01880F991F880F6C
S1130A60991FFC01E857FF4FE20FF31F40818E5896
S1130A709E4FFC01E20FF31F40832F5F3F4F02C0E4
S1130A8020E030E0243031053CF36F5F7F4F02C03B
S1130A9060E070E0643071059CF308952530310501
S1130AA019F51CC0CB01880F991F880F991FFC01F1
S1130AB0E858FF4FE20FF31F40818E589E4FFC0110
S1130AC0E20FF31F40832F5F3F4F02C020E030E06E
S1130AD0243031053CF36F5F7F4F02C060E070E06B
S1130AE0643071059CF308952630310511F51CC05E
S1130AF0CB01880F991F880F991FFC01E859FF4FFC
S1130B00E20FF31F40818E589E4FFC01E20FF31F4A
S1130B1040832F5F3F4F02C020E030E02430310596
S1130B203CF36F5F7F4F02C060E070E0643071059A
S1130B309CF3089520E030E015C0F901EE0FFF1F8B
S1130B40EE0FFF1FEE0FFF1FEE51FF4FE80FF91FCF
S1130B501082019602C080E090E0883091056CF329
S1130B602F5F3F4F20313105B4F3089580E090E0CA
S1130B700E944900CB010E9412078FEF8ABB87BBFA
S1130B8084BB84E881BB0E945C0000E010E0C0E00C
S1130B90D0E0FE01E852FF4F8081809585BBCE01F5
S1130BA00E9409038BBBCE0108960E94090388BBEF
S1130BB02196C830D10514F0C0E0D0E087EE93E070
S1130BC00197F1F700C000008091E0009091E100EE
S1130BD0892B09F048C080916600909167000297C4
S1130BE009F041C080916400909165000196D9F5A7
S1130BF00E94840442E751E062E070E080E090E00B
S1130C000E945F028F3F79F4809164000E94640027
S1130C1082E791E00E94A00283EF91E00197F1F74F
S1130C2000C0000020C089E00E94640082B3806894
S1130C3082BB8FE493EC0197F1F700C0000082B30C
S1130C408F7782BB8FE493EC0197F1F700C000002B
S1130C500E949A059FE32DE083E09150204080405C
S1130C60E1F700C000000F5F1F4F0B34110521F4A2
S1130C700E94310400E010E0839908C00E94ED0353
S1130C808FE493EC0197F1F700C00000849908C049
S1130C900E940F048FE493EC0197F1F700C0000069
S1130CA0859908C00E9431048FE493EC0197F1F711
S1130CB000C0000086996DCF82E791E00E94AE01EA
S1130CC082E791E00E94D50260916600709167000E
S1130CD08091E0009091E10042E651E00E945F02C1
S1130CE08F3F11F51CC0CB01880F991F880F991FE6
S1130CF0FC01EE59FE4FE20FF31F40818E589E4FC8
S1130D00FC01E20FF31F40832F5F3F4F02C020E03E
S1130D1030E0243031053CF36F5F7F4F02C060E068
S1130D2070E0643071059CF382E791E00E94A002B8
S1130D3030CF97FB072E16F4009407D077FD09D027
S1130D400E94AD0607FC05D03EF4909581959F4F17
S1130D500895709561957F4F0895AA1BBB1B51E1BF
S1130D6007C0AA1FBB1FA617B70710F0A61BB70B17
S1130D70881F991F5A95A9F780959095BC01CD01BC
S1130D8008958F929F92AF92BF92CF92DF92EF928B
S1130D90FF92CF93DF93EC01688179818A819B81F3
S1130DA0611571058105910521F464E279ED8BE506
S1130DB097E02DE133EF41E050E00E941D07490127
S1130DC05A019B01AC01A7EAB1E40E943C076B0104
S1130DD07C01ACEEB4EFA50194010E944A07DC014A
S1130DE0CB018C0D9D1DAE1DBF1DB7FF03C0019728
S1130DF0A109B04888839983AA83BB839F77DF9135
S1130E00CF91FF90EF90DF90CF90BF90AF909F90E5
S1130E108F9008950E94C106089580E690E00E9494
S1130E20C1060895A0E0B0E0809360009093610053
S1130E30A0936200B09363000895052E97FB1EF4FF
S1130E4000940E94340757FD07D00E944F0707FC07
S1130E5003D04EF40C943407509540953095219569
S1130E603F4F4F4F5F4F08959095809570956195D2
S1130E707F4F8F4F9F4F08950E947107A59F900D3C
S1130E80B49F900DA49F800D911D11240895B7FF68
S1130E900C943C070E943C07821B930B0895A1E22B
S1130EA01A2EAA1BBB1BFD010DC0AA1FBB1FEE1FE0
S1130EB0FF1FA217B307E407F50720F0A21BB30B2B
S1130EC0E40BF50B661F771F881F991F1A9469F7A7
S1130ED060957095809590959B01AC01BD01CF0103
S1130EE00895A29FB001B39FC001A39F700D811DFF
S1130EF01124911DB29F700D811D1124911D08951F
S1070F00F894FFCF8F
S1130F0401000000FFFF0200FFFFFF0000FF0000DC
S1130F140000000000000000FFFF000000FFFF00CD
S1130F24000000000000000000FFFF00FFFF0000BD
S1130F3400000000000000000000FF000000FF00AB
S1130F4400FFFF000000000000FF000000FF00009D
S1130F5400FFFF000000000000FF000000FF00008D
S1130F6400FF000000FF000000FFFF0000FFFF007F
S1130F74000000000000000001020408102040806A
S9030000FC
