S01100006669727374436F64652E7372656370
S11300000C942A000C9447000C9447000C9447006D
S11300100C9447000C9447000C9447000C94470040
S11300200C9447000C9447000C9447000C94470030
S11300300C9447000C9447000C9447000C94470020
S11300400C9447000C9447000C9447000C94470010
S11300500C94470011241FBECFE5D8E0DEBFCDBF0E
S113006010E0A0E6B0E0EAE9F7E002C005900D92E6
S1130070AE3DB107D9F721E0AEEDB0E001C01D926D
S1130080A638B207E1F70E94A7020C94CB030C94A4
S11300900000FC010FB6F894609182017091830115
S11300A080918401909185010FBE309721F0608387
S11300B07183828393830895CF93DF93EC01A0E04F
S11300C0B0E02EC0FD01EE0FFF1FEE0FFF1FE40F87
S11300D0F51FE20FF31F90819F3FC9F4FD01EC0F60
S11300E0FD1FE031F1050CF5C901860F971F88301B
S11300F09105E8F4EE0FFF1FEE0FFF1FEE0FFF1F39
S1130100EE51FF4FE80FF91F80818F3F91F02F5F71
S11301103F4F02C020E030E0243031059CF21196BC
S1130120A430B105BCF38FEF05C080E003C080E0CC
S113013001C080E0DF91CF910895DC0160E070E0C0
S11301402DC0FB01EE0FFF1FEE0FFF1FEA0FFB1F79
S1130150E20FF31F90819F3FB9F44091E00050916A
S1130160E100460F571FE0916400F0916500E20F33
S1130170F31F440F551F440F551F440F551F4E5175
S11301805F4FE40FF51F90832F5F3F4F02C020E0C5
S113019030E024303105ACF26F5F7F4F643071057D
S11301A0B4F3089560E070E02DC0FB01EE0FFF1F73
S11301B0EE0FFF1FE80FF91FE20FF31F40814F3FBF
S11301C0B9F44091E0005091E100460F571FE091CF
S11301D06400F0916500E20FF31F440F551F440FB4
S11301E0551F440F551F4E515F4FE40FF51F1082EA
S11301F02F5F3F4F02C020E030E024303105ACF2E5
S11302006F5F7F4F64307105B4F30895AC0120E053
S113021030E0A0E0B0E01AC0FA01EE0FFF1FEE0FCD
S1130220FF1FEE0FFF1FEE51FF4FE20FF31F9081F0
S11302309F3F51F461E070E0022E02C0660F771F09
S11302400A94E2F7A62BB72B2F5F3F4F28303105D6
S11302501CF3CD01089582E791E00E94D2006091E1
S11302606400709165008091E0009091E10061501C
S1130270710942E751E00E945C008F3F49F480918C
S113028064009091650001979093650080936400E9
S113029082E791E00E949D00089582E791E00E9428
S11302A0D20060916400709165008091E0009091AB
S11302B0E10042E751E001960E945C008F3F51F457
S11302C08091E0009091E10001969093E100809389
S11302D0E00027C082E791E00E949D0082E090E068
S11302E090936500809364001092E1001092E00006
S11302F020E030E013C0F901EE0FFF1FEE0FFF1FE7
S1130300EE58FE4FE80FF91F1082019602C080E0FC
S113031090E0843091057CF32F5F3F4F243031050A
S1130320B4F382E791E00E949D0008958091DE007D
S11303309091DF0001969093DF008093DE00009798
S1130340E9F022C0CB01880F991F880F991FFC0187
S1130350EA53FF4FE20FF31F40818E589E4FFC017A
S1130360E20FF31F40832F5F3F4F02C020E030E0D5
S1130370243031053CF36F5F7F4F02C060E070E0D2
S1130380643071059CF308958130910519F51CC002
S1130390CB01880F991F880F991FFC01EA54FF4F66
S11303A0E20FF31F40818E589E4FFC01E20FF31FB2
S11303B040832F5F3F4F02C020E030E024303105FE
S11303C03CF36F5F7F4F02C060E070E06430710502
S11303D09CF308958230910519F51CC0CB01880F58
S11303E0991F880F991FFC01EA55FF4FE20FF31F75
S11303F040818E589E4FFC01E20FF31F40832F5F14
S11304003F4F02C020E030E0243031053CF36F5F01
S11304107F4F02C060E070E0643071059CF3089582
S11304208330910519F51CC0CB01880F991F880FE3
S1130430991FFC01EA56FF4FE20FF31F40818E58CB
S11304409E4FFC01E20FF31F40832F5F3F4F02C01A
S113045020E030E0243031053CF36F5F7F4F02C071
S113046060E070E0643071059CF308958430910578
S113047019F51CC0CB01880F991F880F991FFC0127
S1130480EA57FF4FE20FF31F40818E589E4FFC0145
S1130490E20FF31F40832F5F3F4F02C020E030E0A4
S11304A0243031053CF36F5F7F4F02C060E070E0A1
S11304B0643071059CF308958530910519F51CC0CD
S11304C0CB01880F991F880F991FFC01EA58FF4F31
S11304D0E20FF31F40818E589E4FFC01E20FF31F81
S11304E040832F5F3F4F02C020E030E024303105CD
S11304F03CF36F5F7F4F02C060E070E064307105D1
S11305009CF30895069711F51CC0CB01880F991F21
S1130510880F991FFC01EA59FF4FE20FF31F408136
S11305208E589E4FFC01E20FF31F40832F5F3F4F15
S113053002C020E030E0243031053CF36F5F7F4F90
S113054002C060E070E0643071059CF3089580E0BF
S113055090E00E944900CB010E945D038FEF8ABBAB
S113056087BB84BB87E881BBE12CF12C00E010E061
S1130570C0E0D0E0FE01EA52FF4F8081809585BB48
S1130580CE010E9406018BBBCE0108960E94060193
S113059088BB2196C830D10514F0C0E0D0E08DEEC0
S11305A092E00197F1F700C000008091E000909183
S11305B0E100892BD1F48091640090916500029749
S11305C0A1F40E94960182E791E00E94D20042E7E2
S11305D051E062E070E080E090E00E945C008F3FB8
S11305E021F482E791E00E949D000F5F1F4F0233C8
S11305F0110521F40E944D0100E010E009311105BC
S113060009F0B8CFE114F10409F0B4CF0E942B0132
S1130610EE24E394F12CAECF8F929F92AF92BF92CF
S1130620CF92DF92EF92FF92CF93DF93EC01688138
S113063079818A819B81611571058105910521F478
S113064064E279ED8BE597E02DE133EF41E050E092
S11306500E94680349015A019B01AC01A7EAB1E475
S11306600E9487036B017C01ACEEB4EFA5019401F9
S11306700E949503DC01CB018C0D9D1DAE1DBF1D99
S1130680B7FF03C00197A109B04888839983AA835F
S1130690BB839F77DF91CF91FF90EF90DF90CF9056
S11306A0BF90AF909F908F9008950E940C0308957F
S11306B080E690E00E940C030895A0E0B0E08093EF
S11306C0600090936100A0936200B093630008956A
S11306D0052E97FB1EF400940E947F0357FD07D05C
S11306E00E949A0307FC03D04EF40C947F035095A8
S11306F04095309521953F4F4F4F5F4F089590950A
S11307008095709561957F4F8F4F9F4F08950E94FC
S1130710BC03A59F900DB49F900DA49F800D911DC7
S113072011240895B7FF0C9487030E948703821B4A
S1130730930B0895A1E21A2EAA1BBB1BFD010DC049
S1130740AA1FBB1FEE1FFF1FA217B307E407F5077D
S113075020F0A21BB30BE40BF50B661F771F881F59
S1130760991F1A9469F760957095809590959B01EF
S1130770AC01BD01CF010895A29FB001B39FC00198
S1130780A39F700D811D1124911DB29F700D811DB9
S10D07901124911D0895F894FFCF81
S113079A010000000200FFFFFF0000FF000000004C
S11307AA000000000000FFFF000000FFFF0000003F
S11307BA00000000000000FFFF00FFFF000000002F
S11307CA0000000000000000FF000000FF0000FF1E
S11307DAFF000000000000FF000000FF000000FF0F
S11307EAFF000000000000FF000000FF000000FFFF
S11307FA000000FF000000FFFF0000FFFF000000F0
S111080A0000000000000102040810204080DD
S9030000FC
