S01100006669727374436F64652E7372656370
S11300000C942A000C9447000C9447000C9447006D
S11300100C9447000C9447000C9447000C94470040
S11300200C9447000C9447000C9447000C94470030
S11300300C9447000C9447000C9447000C94470020
S11300400C9447000C9447000C9447000C94470010
S11300500C94470011241FBECFE5D8E0DEBFCDBF0E
S113006011E0A0E6B0E0E8E7FCE002C005900D92E4
S1130070A634B107D9F721E0A6E4B1E001C01D928E
S1130080AC3EB207E1F70E9498040C943A060C9433
S11300900000FC010FB6F8946091E8017091E90149
S11300A08091EA019091EB010FBE309721F06083BB
S11300B0718382839383089510BC89E189B988E0B0
S11300C08AB98EE880BD08955D9BFECF8CB90895F2
S11300D0CF92DF92EF92FF920F931F93CF93DF9310
S11300E0C12CD12C47C01416150624F48C010150E0
S11300F0110902C000E010E0E12CF12C22C0D8016B
S1130100AA0FBB1FAA0FBB1FA60FB71FF801E41B42
S1130110F50BEE0FFF1FEE0FFF1FE60FF71FEC0F9F
S1130120FD1FE081AC0FBD1FEC93219602C0C0E01F
S1130130D0E0C817D9071CF3041B150BEFEFEE1A18
S1130140FE0AFC013197EE16FF068CF3A0E0B0E046
S11301500BC0F801EE0FFF1FEE0FFF1FE60FF71F96
S1130160EA0FFB1F10821196A817B90794F3EFEF5B
S1130170CE1ADE0AC216D3060CF4B5CFDF91CF91A6
S11301801F910F91FF90EF90DF90CF900895AF9261
S1130190BF92CF92DF92EF92FF920F931F93CF9370
S11301A0DF935C01790100E010E040C014161506ED
S11301B01CF4C501019702C080E090E020E030E02B
S11301C01CC0FD01EE0FFF1FEE0FFF1FE60FF71F10
S11301D06C01C41AD50ACE0EDF1EE601D880E80FE2
S11301E0F91FD082119602C0A0E0B0E0AA15BB05A9
S11301F044F3841B950B2F5F3F4FF50131972E1766
S11302003F0794F320E030E00CC0F901EE0FFF1F2C
S1130210EE0FFF1FE60FF71FE80FF91F10822F5F85
S11302203F4F2A153B058CF30F5F1F4F0E151F051B
S11302300CF4BCCFDF91CF911F910F91FF90EF9001
S1130240DF90CF90BF90AF9008950F931F93CF93FB
S1130250DF93EC0120E030E00FEF1FEF1BC0F9014A
S1130260EE0FFF1FEE0FFF1FEC0FFD1FE80FF91F2E
S113027040814F3F41F0019602C080E090E084301D
S113028091056CF301C089010F3F8FEF180729F422
S11302902F5F3F4F2430310584F398014FEF5FEF18
S11302A0BE0184E090E00E94680020E030E06FEF3F
S11302B07FEFAFEFBFEF25C0FC01EE0FFF1FEE0F86
S11302C0FF1FEC0FFD1FE20FF31F40814F3F31F47E
S11302D0AF3F8FEFB80751F0B9010AC0019602C0D1
S11302E080E090E0843091053CF302C0B901D9016B
S11302F0AF3F8FEFB80719F0621773072CF02F5F29
S11303003F4F2430310564F36A1B7B0BCB0101960C
S11303106230710520F48D010150110904C0039766
S1130320029708F48D01112334F4119501951109F4
S113033041E050E002C04FEF5FEF9801BE0184E05E
S113034090E00E94C700DF91CF911F910F91089513
S1130350CF93DF93CDB7DEB760970FB6F894DEBFC7
S11303600FBECDBFDC0160E070E01FC09B01220F17
S1130370331F220F331FFD01E20FF31FE40FF51F9C
S11303809081E1E0F0E0EC0FFD1F2E0F3F1FF9011B
S1130390E40FF51F90834F5F5F4F02C040E050E0D1
S11303A0443051051CF36F5F7F4F64307105B4F323
S11303B020E030E021C0FC01EE0FFF1FEE0FFF1F15
S11303C041E050E04C0F5D1FE40FF51FE20FF31FF7
S11303D04081F901EE0FFF1FEE0FFF1FE853FE4FA0
S11303E0E80FF91F4083019602C080E090E084305A
S11303F091050CF32F5F3F4F24303105B4F360E0D7
S113040070E01FC0CB01880F991F880F991FFC0152
S1130410E853FE4FE20FF31F4081E1E0F0E0EC0F00
S1130420FD1F8E0F9F1FFC01E20FF31F40832F5F00
S11304303F4F02C020E030E0243031051CF36F5FF1
S11304407F4F64307105B4F360E070E022C0E3E0F4
S1130450F0E0E21BF30BCB01880F991F880F991F63
S113046041E050E04C0F5D1F480F591FE40FF51F8A
S1130470408188539E4FFC01E20FF31F40832F5F9E
S11304803F4F02C020E030E02430310504F36F5FB9
S11304907F4F64307105B4F388EC91E00E9425012C
S11304A060960FB6F894DEBF0FBECDBFDF91CF913B
S11304B00895CF93DF93EC01A0E0B0E02EC0FD01DE
S11304C0EE0FFF1FEE0FFF1FE40FF51FE20FF31FE8
S11304D090819F3FC9F4FD01EC0FFD1FE031F10550
S11304E00CF5C901860F971F88309105E8F4EE0FCB
S11304F0FF1FEE0FFF1FEE0FFF1FE85BFE4FE80F1D
S1130500F91F80818F3F91F02F5F3F4F02C020E0A1
S113051030E0243031059CF21196A430B105BCF3CF
S11305208FEF05C080E003C080E001C080E0DF9170
S1130530CF910895DC0160E070E02DC0FB01EE0F67
S1130540FF1FEE0FFF1FEA0FFB1FE20FF31F908147
S11305509F3FB9F44091460150914701460F571F00
S1130560E0916400F0916500E20FF31F440F551F02
S1130570440F551F440F551F485B5E4FE40FF51F92
S113058090832F5F3F4F02C020E030E024303105DC
S1130590ACF26F5F7F4F64307105B4F3089560E08F
S11305A070E02DC0FB01EE0FFF1FEE0FFF1FE80FE1
S11305B0F91FE20FF31F40814F3FB9F44091460108
S11305C050914701460F571FE0916400F091650078
S11305D0E20FF31F440F551F440F551F440F551FBF
S11305E0485B5E4FE40FF51F10822F5F3F4F02C040
S11305F020E030E024303105ACF26F5F7F4F64308F
S11306007105B4F30895AC0120E030E0A0E0B0E05F
S11306101AC0FA01EE0FFF1FEE0FFF1FEE0FFF1FB0
S1130620E85BFE4FE20FF31F90819F3F51F461E0BE
S113063070E0022E02C0660F771F0A94E2F7A62B21
S1130640B72B2F5F3F4F283031051CF3CD010895A0
S1130650AC0123C0FC013197EE0FFF1FEE0FFF1F0B
S1130660EE0FFF1FE85BFE4FE20FF31F6081FC01FA
S1130670EE0FFF1FEE0FFF1FEE0FFF1FE85BFE4F95
S1130680E20FF31F60832F5F3F4F02C020E030E092
S113069028303105FCF24150510914161506B4F303
S11306A080E090E005C0FC01E85BFE4F10820196FB
S11306B088309105C4F30895CF93DF93C0E0D0E070
S11306C030C0FE01EE0FFF1FEE0FFF1FEE0FFF1FE6
S11306D0E85BFE4FE80FF91F30812323019603C026
S11306E080E090E02FEF883091055CF32F3FC1F458
S11306F08AE00E94640082B3806882BB8FE493EC3A
S11307000197F1F700C0000082B38F7782BB8FE4BA
S113071093EC0197F1F700C00000CE010E9428037A
S11307202196C031D105E4F2DF91CF9108950F9362
S11307301F93CF93DF93C0E0D0E043C0FA01EE0FE4
S1130740FF1FEE0FFF1FEE0FFF1FE85BFE4FE80FCA
S1130750F91F30812323019602C080E090E08830A5
S1130760910564F34F5F5F4F6F5F7F4F04C0AE012D
S113077060E070E02FEF643071057CF32F3F01F5EA
S11307808BE00E94640082B3806882BB8FE493ECA8
S11307900197F1F700C0000082B38F7782BB8FE42A
S11307A093EC0197F1F700C0000000E010E005C0F1
S11307B0CE010E9428030F5F1F4F04301105C4F3BC
S11307C02196CC30D1059CF2DF91CF911F910F91EE
S11307D0089588ED91E00E94CF02609164007091C9
S11307E0650080914601909147016150710948ED7F
S11307F051E00E9459028F3F49F480916400909126
S113080065000197909365008093640088ED91E002
S11308100E949A02089588ED91E00E94CF026091AF
S113082064007091650080914601909147016F5F6B
S11308307F4F48ED51E00E9459028F3F49F4809167
S11308406400909165000196909365008093640024
S113085088ED91E00E949A02089588ED91E00E944B
S1130860CF0260916400709165008091460190917F
S1130870470148ED51E001960E9459028F3F51F41F
S1130880809146019091470101969093470180938E
S1130890460127C088ED91E00E949A0282E090E030
S11308A09093650080936400109247011092460172
S11308B020E030E013C0F901EE0FFF1FEE0FFF1F21
S11308C0E852FE4FE80FF91F1082019602C080E043
S11308D090E0843091057CF32F5F3F4F2430310545
S11308E0B4F388ED91E00E949A02089560E070E00C
S11308F01BC0CB01880F991F880F991FFC01EA596F
S1130900FF4FE20FF31F408188529E4FFC01E20F1C
S1130910F31F40832F5F3F4F02C020E030E02430BC
S113092031053CF36F5F7F4F64307105B4F3089574
S113093080E090E00E944900CB010E94CC058FEF3B
S11309408ABB87BB84BB84E881BB0E945C00E12C2A
S1130950F12C00E010E0C0E0D0E0FE01E25CFE4FCC
S11309608081809585BBCE010E9403038BBBCE01A1
S113097008960E94030388BB2196C830D10514F061
S1130980C0E0D0E087EE93E00197F1F700C00000EB
S11309908091460190914701892B09F042C08091D2
S11309A06400909165000297E1F5F701EE0FFF1FD7
S11309B0EA58FF4F808191810E9476049FEFE91AE3
S11309C0F90AF701EE0FFF1FEA58FF4F80810E94DA
S11309D0640088ED91E00E94CF0248ED51E062E0AE
S11309E070E080E090E00E9459028F3F29F488ED86
S11309F091E00E949A0215C089E00E94640082B3CB
S1130A00806882BB8FE493EC0197F1F700C000008B
S1130A1082B38F7782BB8FE493EC0197F1F700C028
S1130A2000000F5F1F4F0B34110521F40E942D04A9
S1130A3000E010E0839908C00E94E9038FE493EC7E
S1130A400197F1F700C00000849908C00E940B04CC
S1130A508FE493EC0197F1F700C00000859908C07A
S1130A600E942D048FE493EC0197F1F700C000007D
S1130A7086993CC088ED91E00E94A80188ED91E040
S1130A800E94CF02609164007091650080914601DC
S1130A909091470148EC51E00E9459028F3F11F5B3
S1130AA01CC0CA01880F991F880F991FFC01E853C5
S1130AB0FE4FE20FF31F608188529E4FFC01E20F4C
S1130AC0F31F60832F5F3F4F02C020E030E02430EB
S1130AD031053CF34F5F5F4F02C040E050E04430CB
S1130AE051059CF388ED91E00E949A020E949703BD
S1130AF00E945C0332CF8F929F92AF92BF92CF92AB
S1130B00DF92EF92FF92CF93DF93EC0168817981BA
S1130B108A819B81611571058105910521F464E247
S1130B2079ED8BE597E02DE133EF41E050E00E9451
S1130B30D70549015A019B01AC01A7EAB1E40E941F
S1130B40F6056B017C01ACEEB4EFA50194010E94A3
S1130B500406DC01CB018C0D9D1DAE1DBF1DB7FF2E
S1130B6003C00197A109B04888839983AA83BB83F2
S1130B709F77DF91CF91FF90EF90DF90CF90BF9060
S1130B80AF909F908F9008950E947B05089580E612
S1130B9090E00E947B050895A0E0B0E0809360009F
S1130BA090936100A0936200B09363000895052EB2
S1130BB097FB1EF400940E94EE0557FD07D00E9497
S1130BC0090607FC03D04EF40C94EE0550954095AD
S1130BD0309521953F4F4F4F5F4F089590958095E5
S1130BE0709561957F4F8F4F9F4F08950E942B06FC
S1130BF0A59F900DB49F900DA49F800D911D11246D
S1130C000895B7FF0C94F6050E94F605821B930B1A
S1130C100895A1E21A2EAA1BBB1BFD010DC0AA1F39
S1130C20BB1FEE1FFF1FA217B307E407F50720F051
S1130C30A21BB30BE40BF50B661F771F881F991FCC
S1130C401A9469F760957095809590959B01AC0115
S1130C50BD01CF010895A29FB001B39FC001A39F1E
S1130C60700D811D1124911DB29F700D811D1124E1
S10B0C70911D0895F894FFCFD3
S1130C7801000000020000FFFF0000FFFF00000069
S1130C88000000000000060001000300040000004A
S1130C980400060006000400010005000300020029
S1130CA8060004000000040005000200010005001D
S1130CB8040004000400060000000300000006000D
S1130CC80300040003000600000001000200040001
S1130CD802000200030005000400030002000200F1
S1130CE803000600000006000500010006000100DC
S1130CF801000200050002000300000001000100D9
S1130D0805000400010005000600030005000500B5
S1130D1803000300020005000100060006000100AC
S1130D28050003000100020005000400040003009C
S1130D380100040000000300030004000000020096
S1130D48000000000300020002000100010001028B
S1090D5804081020408095
S9030000FC
