S01E00006D756C7469706C654C4544776974684465636F6465722E7372656353
S11300000C942A000C943F000C943F000C943F0085
S11300100C943F000C943F000C943F000C943F0060
S11300200C943F000C943F000C943F000C943F0050
S11300300C943F000C943F000C943F000C943F0040
S11300400C943F000C943F000C943F000C943F0030
S11300500C943F0011241FBECFE5D8E0DEBFCDBF16
S113006010E0A0E6B0E0E6E9F1E002C005900D92F0
S1130070A03AB107D9F70E9441000C94C9000C942E
S113008000008FEF87BB81BB84BB20E030E07CC0E5
S113009088B3887F88BB88B3922F9770892B88BBDD
S11300A080E090E01FC0F901EE0FFF1FEE0FFF1F6D
S11300B0EE0FFF1FE05AFF4FE80FF91F4081413058
S11300C069F442B3407E42BB42B3582F5770452B6C
S11300D042BB46EA4A95F1F700C003C042B340610F
S11300E042BB019688309105F4F248E050E022C00A
S11300F0F901EE0FFF1FEE0FFF1FEE0FFF1FE05A77
S1130100FF4FCA010897E80FF91F8081813069F415
S113011082B3807E82BB82B3942F9F70892B82BB73
S113012086EA8A95F1F700C003C082B3806182BB7E
S11301304F5F5F4F40315105DCF280E090E01FC01B
S1130140F901EE0FFF1FEE0FFF1FEE0FFF1FE05A26
S1130150FF4FE80FF91F4081413069F445B3407FF8
S113016045BB45B3582F5770452B45BB46EA4A95C6
S1130170F1F700C003C045B3486045BB0196883021
S11301809105F4F22F5F3F4F283031050CF480CFF6
S10901907CCFF894FFCFC0
S1130196000001010100000000000000000101014F
S11301A6000001010100000000000000000101013F
S11301B6000001010100000000000000000101012F
S11301C6000001010100000000000000000101011F
S9030000FC
