:100000000C942A000C943F000C943F000C943F0089
:100010000C943F000C943F000C943F000C943F0064
:100020000C943F000C943F000C943F000C943F0054
:100030000C943F000C943F000C943F000C943F0044
:100040000C943F000C943F000C943F000C943F0034
:100050000C943F0011241FBECFE5D8E0DEBFCDBF1A
:1000600010E0A0E6B0E0E4E4F1E002C005900D92FB
:10007000A03AB107D9F70E9441000C94A0000C945B
:1000800000008FEF87BB81BB84BB21E030E053C011
:1000900028BB80E090E013C0F9013197EE0FFF1FFD
:1000A000EE0FFF1FEE0FFF1FE05AFF4FE80FF91F83
:1000B0004081413019F4482F409542BB0196883069
:1000C000910554F368E070E018C0C9010197880FEA
:1000D000991F880F991F880F991F805A9F4FAB0156
:1000E00048505109FC01E40FF51F8081811103C0C4
:1000F000862F809582BB6F5F7F4F603171052CF337
:1001000080E090E013C0F9013197EE0FFF1FEE0F72
:10011000FF1FEE0FFF1FE05AFF4FE80FF91F40814E
:10012000442319F0482F409545BB0196883091052E
:1001300054F32F5F3F4F293031050CF4A9CFA5CFE1
:04014000F894FFCF61
:1001440000000101010000000000000000010101A5
:100154000000010101000000000000000001010195
:100164000000010101000000000000000001010185
:100174000000010101000000000000000001010175
:00000001FF
